:1000000054C06CC06BC06AC069C068C07AC366C0A7
:1000100065C064C063C096C161C060C05FC05EC09F
:100020005DC05CC05BC05AC059C037383934353602
:10003000313233533045302E205779737A756B2E19
:10004000445331383231005A6E616C657A696F6E93
:100050006F00312E204F64637A79742074656D705F
:100060002E00322E2055737461772074656D702ECA
:10007000544C00332E2055737461772074656D7075
:100080002E544800342E20557374617720706F6CA5
:1000900061722E00352E2054727962207465726D63
:1000A0006F732E002C2044513D0011241FBECFED54
:1000B000CDBF10E0A0E6B0E0ECEFF7E002C00590A5
:1000C0000D92A236B107D9F710E0A2E6B0E001C068
:1000D0001D92AA36B107E1F7F1D28EC391CF1F93DB
:1000E000CF93DF93EC01B4D2882351F18CEAC8D2CC
:1000F000D7D2182F80FD0EC0ABD2882309F18CE037
:10010000BFD2812F8160BCD283ED90E30197F1F7DC
:1001100000C000009DD2882399F08EEEB1D298D213
:10012000882371F08CEAACD2BBD287FFF8CF90D293
:10013000882331F08AEAA4D2B3D2888380E001C058
:1001400081E0DF91CF911F9108952FB7F894D9984E
:1001500080E031E09AB393279ABB8F5F8032D1F76A
:10016000D99A2FBF80EA8A95F1F7089592B39778CC
:1001700092BB92B386958877892B82BB08951F9393
:10018000182F919AF3DF9198919A812F8295807F11
:10019000EDDF919880E18A95F1F700C01F910895F5
:1001A0009098EDCF909AEBCFCF93DF93EC0101C005
:1001B000F9DFFE01219684918823D1F7DF91CF9159
:1001C00008956295660F660F607C680F862F8068C1
:1001D000E7CF81E0E5DF86E791E00197F1F700C026
:1001E00000000895BC9A8FEF81BB8BEF82BB83E246
:1001F00094EF0197F1F700C0000084E082BB83ED2B
:1002000090E30197F1F700C00000919A80E2AEDF21
:10021000919889EF90E00197F1F700C0000088E223
:10022000BFDF8CE0BDDFD5DF86E0BADF81E28FBDC6
:1002300082E08EBD0895FF920F931F93DF93CF93BB
:10024000CDB7DEB7C550CDBF181624F49BE2998315
:10025000819502C09DE299833AE0632FC0D220E3EA
:10026000422F491B4C83632FBAD2422F491B4B8329
:10027000632FB5D2291B2A831D82FF248E010F5FB5
:100280001F4F02C0F3948EDFF801EF0DF11D808146
:100290008823C1F7CB5FCDBFCF91DF911F910F9125
:1002A000FF90089587E187BB88EE88BB80BD8BB740
:1002B00080628BBF08951F93DF93CF930F92CDB7CA
:1002C000DEB786B387618095803259F0813218F4A9
:1002D000883091F508C0803441F0803869F580E0BD
:1002E00005C082E003C083E001C081E098EF97BBC6
:1002F00097E098BB93E09A95F1F7000096B3986F5A
:100300009095923051F0943031F0913011F412E028
:1003100005C0C8DF11C010E001C011E08983C2DF51
:10032000898190E063E070E03CD2FC01E10FF11DB7
:10033000E65DFF4F849101C088E50F90CF91DF917A
:100340001F9108951F920F920FB60F9211242F93B1
:100350003F934F935F936F937F938F939F93AF934D
:10036000BF93EF93FF93A7DF809360008835B9F0C8
:1003700080916900882351F428E088E190E00FB66D
:10038000F894A89581BD0FBE21BDFFCF82E282BF48
:100390008FEF809369008BB78F7D8BBF14D088E57A
:1003A00080936000FF91EF91BF91AF919F918F91EA
:1003B0007F916F915F914F913F912F910F900FBE61
:1003C0000F901F90189544D1882331F480916200DA
:1003D000803511F010926200FCDE80916200803264
:1003E00009F43FC0813230F4882371F0803109F084
:1003F000FBC01FC0803409F494C0803509F4C4C028
:10040000803309F0F1C05DC086E390E0CDDE9DDE73
:100410001FD1882309F4E8C083E061E0D2DE87E4DD
:1004200090E0C2DE80E1809362008FEF80936900EC
:10043000089582E590E0B8DE83E061E0C2DE80915D
:100440006300F9DE80916000823321F0883331F45B
:1004500080E501C080E280936200089583E690E029
:100460003ECE82E690E0A0DE80916000843379F099
:10047000853318F48233D1F406C0863371F08833A3
:10048000A9F480E101C080E38093620014C082E09F
:10049000F7D080916500815005C082E0F1D0809155
:1004A00065008F5F80936500EBD005C082EAE8D0DD
:1004B000F7D08093650083E061E083DE8091650082
:1004C0002FC083E790E070DE80916000843379F084
:1004D000853318F48233D1F406C0863371F0883343
:1004E000A9F480E201C080E48093620014C081E03E
:1004F000C7D080916700815005C081E0C1D0809154
:1005000067008F5F80936700BBD005C081EAB8D0D9
:10051000C7D08093670083E061E053DE809167007D
:100520008ACE84E890E040DE80916000843379F0E8
:10053000853318F48233B9F406C0863341F088332A
:1005400091F480E301C080E58093620011C0809146
:10055000660092E08927809366008CE091D08091BC
:1005600066008ED005C08CEA8BD09AD0809366004E
:1005700083E061E026DE8091660090E082709070FA
:1005800095958795805D0ECE84E990E00DDE809193
:100590006000843379F0853318F48233B1F406C0F7
:1005A000863341F0883389F480E401C080E1809390
:1005B00062000BC0809166008460809366008CE0CE
:1005C0005FD0809166005CD0C0DD83E061E0F9DD42
:1005D0003FD091E3981B892FE5DD84EA90E0E4DDCC
:1005E00089B38170805DDECD089582E08BBB8ABBCC
:1005F00080EA8A95F1F708958FB7F894D09A92E03F
:100600009A95F1F7D09895E19A95F1F700008FBF90
:1006100008958FB7F894D09A94E19A95F1F7D0980D
:1006200093E09A95F1F700008FBF08959FB7F89473
:10063000D09A22E02A95F1F7D09883E08A95F1F7D5
:1006400089B322E12A95F1F700009FBF81700895D8
:10065000C89B14C09FB7F894D09A20EA2A95F1F766
:10066000D09887E18A95F1F7000081E0C89980E091
:1006700028E82A95F1F700C09FBF089580E008950B
:100680000F931F93082F18E000FF02C0B5DF01C0D1
:10069000C0DF115011F00695F7CF1F910F9108950B
:1006A0000F931F9308E010E01695C0DF81111068CA
:1006B0000150D1F7812F1F910F91089584B7877F43
:1006C00084BF88E10FB6F89481BD11BC0FBE8DDFE9
:1006D00089DDE8DD0DD077DE85B78F7A85BF789428
:1006E00085B7806285BF889585B78F7D85BFF8CF38
:1006F0008FEF8093690085E083BF89B7826089BFEF
:1007000008951F920F920FB60F9211242F933F93CB
:100710004F935F936F937F938F939F93AF93BF9309
:10072000EF93FF9380916900882319F081508093A3
:1007300069008091690063E046D0992309F443DEA3
:1007400080916900863791F0873718F4882381F00B
:1007500017C08A3B41F08E3F99F48FEF88BD8BB76D
:1007600080628BBF0DC084E488BD0AC018BC08C07D
:1007700084E081BB12BA1ABA1BBA85B7806585BFFF
:10078000FF91EF91BF91AF919F918F917F916F9169
:100790005F914F913F912F910F900FBE0F901F903F
:1007A00018955527002480FF02C0060E571F660FBC
:1007B000771F6115710521F096958795009799F738
:1007C000952F802D0895991B79E004C0991F9617E5
:1007D00008F0961B881F7A95C9F78095089587FBC6
:1007E000082E062687FD819567FD6195ECDF0EF4E6
:0C07F000919507FC81950895F894FFCFC7
:0207FC005800A3
:00000001FF
