:1000000054C06CC06BC06AC069C068C06EC366C0B3
:1000100065C064C063C06BC161C060C05FC05EC0CA
:100020005DC05CC05BC05AC059C037383934353602
:10003000313233533045302E205779737A756B2E19
:10004000445331383231005A6E616C657A696F6E93
:100050006F00312E204F64637A79742074656D705F
:100060002E00322E2055737461772074656D702ECA
:10007000544C00332E2055737461772074656D7075
:100080002E544800342E20557374617720706F6CA5
:1000900061722E00352E2054727962207465726D63
:1000A0006F732E002C2044513D0011241FBECFED54
:1000B000CDBF10E0A0E6B0E0E4EFF7E002C00590AD
:1000C0000D92A236B107D9F710E0A2E6B0E001C068
:1000D0001D92AA36B107E1F7E6D28AC391CF2FB7B6
:1000E000F8941BBA8FEF9CE70197F1F700C000006E
:1000F00080E031E09AB393279ABB8F5F8032D1F7CB
:1001000082E08BBB90EA9A95F1F72FBF089592B3E6
:10011000977892BB92B386958877892B82BB089596
:100120001F93182F919AF3DF9198919A812F8295BE
:10013000807FEDDF919880E18A95F1F700C01F91F3
:1001400008959098EDCF909AEBCFCF93DF93EC0189
:1001500001C0F9DFFE01219684918823D1F7DF9158
:10016000CF9108956295660F660F607C680F862FA9
:100170008068E7CF81E0E5DF8DEE92E00197F1F74F
:1001800000C000000895BC9AC49A8FEF81BB8BEF2A
:1001900082BB8FEF9FE8A1E081509040A040E1F743
:1001A00000C0000084E082BBAFE7BEE31197F1F727
:1001B00000C00000919A80E2AADF919889EF90E058
:1001C0000197F1F700C0000088E2BBDF8CE0B9DFE7
:1001D000D1DF86E0B6DF81E28FBD82E08EBD08957B
:1001E000FF920F931F93DF93CF93CDB7DEB7C55028
:1001F000CDBF87FF03C09DE2998303C09BE2998333
:1002000081953AE0632FDBD220E3422F491B4C83D8
:10021000632FD5D2422F491B4B83632FD0D2291B8A
:100220002A831D82FF248E010F5F1F4F02C0F394AB
:100230008ADFF801EF0DF11D80818823C1F7CB5FC4
:10024000CDBFCF91DF911F910F91FF90089587E16E
:1002500087BB88EE88BB80BD8BB780628BBF08955B
:100260001F93DF93CF930F92CDB7DEB786B387612D
:100270008095803259F0813218F4883091F508C0A9
:10028000803441F0803869F580E005C082E003C029
:1002900083E001C081E098EF97BB97E098BB93E0C3
:1002A0009A95F1F7000096B3986F9095923051F0BF
:1002B000943031F0913011F412E005C0C8DF11C064
:1002C00010E001C011E08983C2DF898190E063E022
:1002D00070E063D2FC01E10FF11DE65DFF4F8491F8
:1002E00001C088E50F90CF91DF911F9108951F9273
:1002F0000F920FB60F9211242F933F934F935F935A
:100300006F937F938F939F93AF93BF93EF93FF93DD
:10031000A7DF809360008835B9F080916900882359
:1003200051F428E088E190E00FB6F894A89581BDDB
:100330000FBE21BDFFCF81E182BF8FEF80936900A7
:100340008BB78F7D8BBF14D088E580936000FF91C1
:10035000EF91BF91AF919F918F917F916F915F913D
:100360004F913F912F910F900FBE0F901F901895B6
:100370001F931091600061D1882331F48091620055
:10038000803511F010926200F5DE809162008032BB
:1003900009F463C0813230F4882371F0803109F0B0
:1003A00017C11FC0803409F4B5C0803509F4E2C01C
:1003B000803309F00DC17FC086E390E0C6DE3DD1F9
:1003C000882369F083E061E0CDDE87E490E0BDDE64
:1003D00080E1809362008FEF80936900F9C07FDE37
:1003E000F7C082E590E0B1DE83E061E0BBDE8091A2
:1003F0006400F6DE123321F0183331F480E501C0D9
:1004000080E280936200E4C018D18CEA2ED13DD105
:100410008093670080FD0DC010D18CE026D18091C3
:100420006700816022D183ED90E30197F1F700C06E
:10043000000003D18EEE19D100D1882339F08CEA67
:1004400014D123D18093670087FFF6CFF6D08AEAD4
:100450000CD11BD180936400BBC082E690E075DEB6
:10046000143379F0153318F41233D1F406C016336F
:1004700071F01833A9F480E101C080E38093620039
:1004800014C082E0F2D080916600815005C082E005
:10049000ECD0809166008F5F80936600E6D005C047
:1004A00082EAE3D0F2D08093660083E061E05ADE16
:1004B000809166002DC083E790E047DE143379F029
:1004C000153318F41233D1F406C0163371F0183313
:1004D000A9F480E201C080E48093620014C081E04E
:1004E000C4D080916800815005C081E0BED0809169
:1004F00068008F5F80936800B8D005C081EAB5D0EE
:10050000C4D08093680083E061E02CDE80916800B5
:1005100067DE5EC084E890E018DE143379F01533AE
:1005200018F41233B9F406C0163341F0183391F4BD
:1005300080E301C080E58093620011C08091670074
:1005400092E08927809367008CE08FD080916700CC
:100550008CD005C08CEA89D098D08093670083E066
:1005600061E000DE8091670090E082709070959568
:1005700087952CC084E990E0E8DD143379F01533D9
:1005800018F41233B1F406C0163341F0183389F46D
:1005900080E401C080E1809362000BC0809167001D
:1005A0008460809367008CE060D0809167005DD0AC
:1005B00096DD83E061E0D6DD40D091E3981B892F82
:1005C000C2DD84EA90E0C1DD89B38170805DBBDD6E
:1005D0001F91089582E08BBB8ABB80EA8A95F1F770
:1005E00008958FB7F894D09A92E09A95F1F7D09841
:1005F00095E19A95F1F700008FBF08958FB7F894B1
:10060000D09A94E19A95F1F7D09893E09A95F1F702
:1006100000008FBF08959FB7F894D09A22E02A95E2
:10062000F1F7D09883E08A95F1F789B322E12A9512
:10063000F1F700009FBF81700895C89B14C09FB759
:10064000F894D09A20EA2A95F1F7D09887E18A9514
:10065000F1F7000081E0C89980E028E82A95F1F7D9
:1006600000C09FBF089580E008950F931F93082F47
:1006700018E000FF02C0B5DF01C0C0DF115011F06B
:100680000695F7CF1F910F9108950F931F9308E0E0
:1006900010E01695C0DF811110680150D1F7812F4D
:1006A0001F910F91089584B7877F84BF88E10FB6AB
:1006B000F89481BD11BC0FBE8DDF65DDC8DD0CD0A7
:1006C00085B78F7A85BF789485B7806285BF889516
:1006D00085B78F7D85BFF8CF8FEF8093690085E068
:1006E00083BF89B7826089BF089578941F920F9263
:1006F0000FB60F9211242F933F934F935F936F93F5
:100700007F938F939F93AF93BF93EF93FF938091CA
:100710006300882389F581E0809363008091600005
:10072000883509F425DE80916900882319F081500D
:100730008093690080916900863791F0873718F4BB
:10074000882381F017C08A3B41F08E3F99F48FEFE8
:1007500088BD8BB780628BBF0DC084E488BD0AC0A2
:1007600018BC08C084E081BB12BA1ABA1BBA85B79C
:10077000806585BF10926300FF91EF91BF91AF91AB
:100780009F918F917F916F915F914F913F912F91A9
:100790000F900FBE0F901F9018955527002480FFD3
:1007A00002C0060E571F660F771F6115710521F0F5
:1007B00096958795009799F7952F802D089587FB3B
:1007C000082E062687FD819567FD619505D00EF4FC
:1007D000919507FC81950895991B79E004C0991FB4
:1007E000961708F0961B881F7A95C9F7809508958B
:0407F000F894FFCFAB
:0207F4005800AB
:00000001FF
